{
  "contractName": "MarketPlace",
  "abi": [
    {
      "inputs": [],
      "stateMutability": "nonpayable",
      "type": "constructor"
    },
    {
      "anonymous": false,
      "inputs": [
        {
          "indexed": true,
          "internalType": "uint256",
          "name": "itemId",
          "type": "uint256"
        },
        {
          "indexed": false,
          "internalType": "uint256",
          "name": "tokenId",
          "type": "uint256"
        },
        {
          "indexed": false,
          "internalType": "address",
          "name": "nft",
          "type": "address"
        },
        {
          "indexed": false,
          "internalType": "uint256",
          "name": "amount",
          "type": "uint256"
        },
        {
          "indexed": false,
          "internalType": "address payable",
          "name": "seller",
          "type": "address"
        },
        {
          "indexed": false,
          "internalType": "address payable",
          "name": "owner",
          "type": "address"
        },
        {
          "indexed": false,
          "internalType": "uint256",
          "name": "timestamp",
          "type": "uint256"
        },
        {
          "indexed": false,
          "internalType": "bool",
          "name": "sold",
          "type": "bool"
        }
      ],
      "name": "Brought",
      "type": "event"
    },
    {
      "anonymous": false,
      "inputs": [
        {
          "indexed": true,
          "internalType": "uint256",
          "name": "itemId",
          "type": "uint256"
        },
        {
          "indexed": false,
          "internalType": "uint256",
          "name": "tokenId",
          "type": "uint256"
        },
        {
          "indexed": false,
          "internalType": "address",
          "name": "nft",
          "type": "address"
        },
        {
          "indexed": false,
          "internalType": "uint256",
          "name": "amount",
          "type": "uint256"
        },
        {
          "indexed": false,
          "internalType": "address payable",
          "name": "seller",
          "type": "address"
        },
        {
          "indexed": false,
          "internalType": "address payable",
          "name": "owner",
          "type": "address"
        },
        {
          "indexed": false,
          "internalType": "uint256",
          "name": "timestamp",
          "type": "uint256"
        },
        {
          "indexed": false,
          "internalType": "bool",
          "name": "sold",
          "type": "bool"
        }
      ],
      "name": "Offered",
      "type": "event"
    },
    {
      "anonymous": false,
      "inputs": [
        {
          "indexed": true,
          "internalType": "uint256",
          "name": "itemId",
          "type": "uint256"
        },
        {
          "indexed": false,
          "internalType": "uint256",
          "name": "tokenId",
          "type": "uint256"
        },
        {
          "indexed": false,
          "internalType": "address",
          "name": "nft",
          "type": "address"
        },
        {
          "indexed": false,
          "internalType": "uint256",
          "name": "amount",
          "type": "uint256"
        },
        {
          "indexed": false,
          "internalType": "address payable",
          "name": "seller",
          "type": "address"
        },
        {
          "indexed": false,
          "internalType": "address payable",
          "name": "owner",
          "type": "address"
        },
        {
          "indexed": false,
          "internalType": "uint256",
          "name": "timestamp",
          "type": "uint256"
        },
        {
          "indexed": false,
          "internalType": "bool",
          "name": "sold",
          "type": "bool"
        }
      ],
      "name": "ReSell",
      "type": "event"
    },
    {
      "inputs": [],
      "name": "getListingPrice",
      "outputs": [
        {
          "internalType": "uint256",
          "name": "",
          "type": "uint256"
        }
      ],
      "stateMutability": "view",
      "type": "function",
      "constant": true
    },
    {
      "inputs": [
        {
          "internalType": "uint256",
          "name": "_newListingPrice",
          "type": "uint256"
        }
      ],
      "name": "updateListingPrice",
      "outputs": [],
      "stateMutability": "payable",
      "type": "function",
      "payable": true
    },
    {
      "inputs": [
        {
          "internalType": "address",
          "name": "_nftAddress",
          "type": "address"
        },
        {
          "internalType": "uint256",
          "name": "tokenId",
          "type": "uint256"
        },
        {
          "internalType": "uint256",
          "name": "amount",
          "type": "uint256"
        }
      ],
      "name": "createMarketItem",
      "outputs": [],
      "stateMutability": "payable",
      "type": "function",
      "payable": true
    },
    {
      "inputs": [
        {
          "internalType": "address",
          "name": "nftAddress",
          "type": "address"
        },
        {
          "internalType": "uint256",
          "name": "itemId",
          "type": "uint256"
        },
        {
          "internalType": "uint256",
          "name": "amount",
          "type": "uint256"
        }
      ],
      "name": "resellMarketItem",
      "outputs": [],
      "stateMutability": "payable",
      "type": "function",
      "payable": true
    },
    {
      "inputs": [
        {
          "internalType": "address",
          "name": "nftAddress",
          "type": "address"
        },
        {
          "internalType": "uint256",
          "name": "itemId",
          "type": "uint256"
        }
      ],
      "name": "createMarketItemSell",
      "outputs": [],
      "stateMutability": "payable",
      "type": "function",
      "payable": true
    },
    {
      "inputs": [],
      "name": "fetchMarketItems",
      "outputs": [
        {
          "components": [
            {
              "internalType": "uint256",
              "name": "itemId",
              "type": "uint256"
            },
            {
              "internalType": "uint256",
              "name": "tokenId",
              "type": "uint256"
            },
            {
              "internalType": "address",
              "name": "nft",
              "type": "address"
            },
            {
              "internalType": "uint256",
              "name": "amount",
              "type": "uint256"
            },
            {
              "internalType": "address payable",
              "name": "seller",
              "type": "address"
            },
            {
              "internalType": "address payable",
              "name": "owner",
              "type": "address"
            },
            {
              "internalType": "uint256",
              "name": "timestamp",
              "type": "uint256"
            },
            {
              "internalType": "bool",
              "name": "sold",
              "type": "bool"
            }
          ],
          "internalType": "struct MarketPlace.MarketItem[]",
          "name": "",
          "type": "tuple[]"
        }
      ],
      "stateMutability": "view",
      "type": "function",
      "constant": true
    },
    {
      "inputs": [],
      "name": "fetchMyNFTs",
      "outputs": [
        {
          "components": [
            {
              "internalType": "uint256",
              "name": "itemId",
              "type": "uint256"
            },
            {
              "internalType": "uint256",
              "name": "tokenId",
              "type": "uint256"
            },
            {
              "internalType": "address",
              "name": "nft",
              "type": "address"
            },
            {
              "internalType": "uint256",
              "name": "amount",
              "type": "uint256"
            },
            {
              "internalType": "address payable",
              "name": "seller",
              "type": "address"
            },
            {
              "internalType": "address payable",
              "name": "owner",
              "type": "address"
            },
            {
              "internalType": "uint256",
              "name": "timestamp",
              "type": "uint256"
            },
            {
              "internalType": "bool",
              "name": "sold",
              "type": "bool"
            }
          ],
          "internalType": "struct MarketPlace.MarketItem[]",
          "name": "",
          "type": "tuple[]"
        }
      ],
      "stateMutability": "view",
      "type": "function",
      "constant": true
    },
    {
      "inputs": [],
      "name": "fethNFTsCreatedByMe",
      "outputs": [
        {
          "components": [
            {
              "internalType": "uint256",
              "name": "itemId",
              "type": "uint256"
            },
            {
              "internalType": "uint256",
              "name": "tokenId",
              "type": "uint256"
            },
            {
              "internalType": "address",
              "name": "nft",
              "type": "address"
            },
            {
              "internalType": "uint256",
              "name": "amount",
              "type": "uint256"
            },
            {
              "internalType": "address payable",
              "name": "seller",
              "type": "address"
            },
            {
              "internalType": "address payable",
              "name": "owner",
              "type": "address"
            },
            {
              "internalType": "uint256",
              "name": "timestamp",
              "type": "uint256"
            },
            {
              "internalType": "bool",
              "name": "sold",
              "type": "bool"
            }
          ],
          "internalType": "struct MarketPlace.MarketItem[]",
          "name": "",
          "type": "tuple[]"
        }
      ],
      "stateMutability": "view",
      "type": "function",
      "constant": true
    }
  ],
  "bytecode": "0x60806040526608e1bc9bf0400060035534801561001b57600080fd5b5033600260006101000a81548173ffffffffffffffffffffffffffffffffffffffff021916908373ffffffffffffffffffffffffffffffffffffffff160217905550611e9d8061006c6000396000f3fe60806040526004361061007b5760003560e01c806358eb2df51161004e57806358eb2df51461012c5780638eb6ee4a14610148578063ae677aa314610164578063f4168f09146101805761007b565b80630f08efe01461008057806312e85585146100ab5780631bb2443c146100d6578063202e374014610101575b600080fd5b34801561008c57600080fd5b5061009561019c565b6040516100a29190611837565b60405180910390f35b3480156100b757600080fd5b506100c06104af565b6040516100cd9190611868565b60405180910390f35b3480156100e257600080fd5b506100eb6104b9565b6040516100f89190611837565b60405180910390f35b34801561010d57600080fd5b50610116610810565b6040516101239190611837565b60405180910390f35b610146600480360381019061014191906118e0565b610b60565b005b610162600480360381019061015d91906118e0565b610e29565b005b61017e60048036038101906101799190611933565b6111cd565b005b61019a60048036038101906101959190611960565b611267565b005b606060006101aa6000611546565b905060006101b86001611546565b6101c26000611546565b6101cc91906119cf565b90506000808267ffffffffffffffff8111156101eb576101ea611a03565b5b60405190808252806020026020018201604052801561022457816020015b6102116115c6565b8152602001906001900390816102095790505b50905060005b848110156104a4573073ffffffffffffffffffffffffffffffffffffffff166004600060018461025a9190611a32565b815260200190815260200160002060050160009054906101000a900473ffffffffffffffffffffffffffffffffffffffff1673ffffffffffffffffffffffffffffffffffffffff161480156102e2575060001515600460006001846102bf9190611a32565b815260200190815260200160002060070160009054906101000a900460ff161515145b156104915760006001826102f69190611a32565b90506000600460008381526020019081526020016000209050806040518061010001604052908160008201548152602001600182015481526020016002820160009054906101000a900473ffffffffffffffffffffffffffffffffffffffff1673ffffffffffffffffffffffffffffffffffffffff1673ffffffffffffffffffffffffffffffffffffffff168152602001600382015481526020016004820160009054906101000a900473ffffffffffffffffffffffffffffffffffffffff1673ffffffffffffffffffffffffffffffffffffffff1673ffffffffffffffffffffffffffffffffffffffff1681526020016005820160009054906101000a900473ffffffffffffffffffffffffffffffffffffffff1673ffffffffffffffffffffffffffffffffffffffff1673ffffffffffffffffffffffffffffffffffffffff168152602001600682015481526020016007820160009054906101000a900460ff16151515158152505084868151811061047457610473611a88565b5b602002602001018190525060018561048c9190611a32565b945050505b808061049c90611ab7565b91505061022a565b508094505050505090565b6000600354905090565b606060006104c76000611546565b905060008060005b8381101561056f573373ffffffffffffffffffffffffffffffffffffffff16600460006001846104ff9190611a32565b815260200190815260200160002060040160009054906101000a900473ffffffffffffffffffffffffffffffffffffffff1673ffffffffffffffffffffffffffffffffffffffff160361055c576001826105599190611a32565b91505b808061056790611ab7565b9150506104cf565b5060008167ffffffffffffffff81111561058c5761058b611a03565b5b6040519080825280602002602001820160405280156105c557816020015b6105b26115c6565b8152602001906001900390816105aa5790505b50905060005b82811015610805573373ffffffffffffffffffffffffffffffffffffffff16600460006001846105fb9190611a32565b815260200190815260200160002060040160009054906101000a900473ffffffffffffffffffffffffffffffffffffffff1673ffffffffffffffffffffffffffffffffffffffff16036107f25760006001826106579190611a32565b90506000600460008381526020019081526020016000209050806040518061010001604052908160008201548152602001600182015481526020016002820160009054906101000a900473ffffffffffffffffffffffffffffffffffffffff1673ffffffffffffffffffffffffffffffffffffffff1673ffffffffffffffffffffffffffffffffffffffff168152602001600382015481526020016004820160009054906101000a900473ffffffffffffffffffffffffffffffffffffffff1673ffffffffffffffffffffffffffffffffffffffff1673ffffffffffffffffffffffffffffffffffffffff1681526020016005820160009054906101000a900473ffffffffffffffffffffffffffffffffffffffff1673ffffffffffffffffffffffffffffffffffffffff1673ffffffffffffffffffffffffffffffffffffffff168152602001600682015481526020016007820160009054906101000a900460ff1615151515815250508487815181106107d5576107d4611a88565b5b60200260200101819052506001866107ed9190611a32565b955050505b80806107fd90611ab7565b9150506105cb565b508094505050505090565b6060600061081e6000611546565b90506000805b828110156108c4573373ffffffffffffffffffffffffffffffffffffffff16600460006001846108549190611a32565b815260200190815260200160002060050160009054906101000a900473ffffffffffffffffffffffffffffffffffffffff1673ffffffffffffffffffffffffffffffffffffffff16036108b1576001826108ae9190611a32565b91505b80806108bc90611ab7565b915050610824565b5060008167ffffffffffffffff8111156108e1576108e0611a03565b5b60405190808252806020026020018201604052801561091a57816020015b6109076115c6565b8152602001906001900390816108ff5790505b5090506000805b84811015610b55573373ffffffffffffffffffffffffffffffffffffffff16600460006001846109519190611a32565b815260200190815260200160002060050160009054906101000a900473ffffffffffffffffffffffffffffffffffffffff1673ffffffffffffffffffffffffffffffffffffffff1603610b425760006001826109ad9190611a32565b9050600460008281526020019081526020016000206040518061010001604052908160008201548152602001600182015481526020016002820160009054906101000a900473ffffffffffffffffffffffffffffffffffffffff1673ffffffffffffffffffffffffffffffffffffffff1673ffffffffffffffffffffffffffffffffffffffff168152602001600382015481526020016004820160009054906101000a900473ffffffffffffffffffffffffffffffffffffffff1673ffffffffffffffffffffffffffffffffffffffff1673ffffffffffffffffffffffffffffffffffffffff1681526020016005820160009054906101000a900473ffffffffffffffffffffffffffffffffffffffff1673ffffffffffffffffffffffffffffffffffffffff1673ffffffffffffffffffffffffffffffffffffffff168152602001600682015481526020016007820160009054906101000a900460ff161515151581525050848481518110610b2657610b25611a88565b5b6020026020010181905250600183610b3e9190611a32565b9250505b8080610b4d90611ab7565b915050610921565b508194505050505090565b6003543414610ba4576040517f08c379a0000000000000000000000000000000000000000000000000000000008152600401610b9b90611b5c565b60405180910390fd5b610bae6000611554565b6000610bba6000611546565b90506040518061010001604052808281526020018481526020018573ffffffffffffffffffffffffffffffffffffffff1681526020018381526020013373ffffffffffffffffffffffffffffffffffffffff1681526020013073ffffffffffffffffffffffffffffffffffffffff1681526020014281526020016000151581525060046000838152602001908152602001600020600082015181600001556020820151816001015560408201518160020160006101000a81548173ffffffffffffffffffffffffffffffffffffffff021916908373ffffffffffffffffffffffffffffffffffffffff1602179055506060820151816003015560808201518160040160006101000a81548173ffffffffffffffffffffffffffffffffffffffff021916908373ffffffffffffffffffffffffffffffffffffffff16021790555060a08201518160050160006101000a81548173ffffffffffffffffffffffffffffffffffffffff021916908373ffffffffffffffffffffffffffffffffffffffff16021790555060c0820151816006015560e08201518160070160006101000a81548160ff0219169083151502179055509050508373ffffffffffffffffffffffffffffffffffffffff166323b872dd3330866040518463ffffffff1660e01b8152600401610dab93929190611b8b565b600060405180830381600087803b158015610dc557600080fd5b505af1158015610dd9573d6000803e3d6000fd5b50505050807f5b35ad068a6f35a583970421c7569f7bfea21215ae28ed168655a54d31a9c21f848685336000426000604051610e1b9796959493929190611be0565b60405180910390a250505050565b6003543414610e6d576040517f08c379a0000000000000000000000000000000000000000000000000000000008152600401610e6490611b5c565b60405180910390fd5b816004600082815260200190815260200160002060050160009054906101000a900473ffffffffffffffffffffffffffffffffffffffff1673ffffffffffffffffffffffffffffffffffffffff163373ffffffffffffffffffffffffffffffffffffffff1614610f12576040517f08c379a0000000000000000000000000000000000000000000000000000000008152600401610f0990611c9b565b60405180910390fd5b6000600460008581526020019081526020016000206001015490503373ffffffffffffffffffffffffffffffffffffffff168573ffffffffffffffffffffffffffffffffffffffff16636352211e836040518263ffffffff1660e01b8152600401610f7d9190611868565b602060405180830381865afa158015610f9a573d6000803e3d6000fd5b505050506040513d601f19601f82011682018060405250810190610fbe9190611cd0565b73ffffffffffffffffffffffffffffffffffffffff1614611014576040517f08c379a000000000000000000000000000000000000000000000000000000000815260040161100b90611c9b565b60405180910390fd5b61101e600161156a565b8473ffffffffffffffffffffffffffffffffffffffff166323b872dd3330846040518463ffffffff1660e01b815260040161105b93929190611b8b565b600060405180830381600087803b15801561107557600080fd5b505af1158015611089573d6000803e3d6000fd5b5050505060006004600086815260200190815260200160002060070160006101000a81548160ff021916908315150217905550306004600086815260200190815260200160002060050160006101000a81548173ffffffffffffffffffffffffffffffffffffffff021916908373ffffffffffffffffffffffffffffffffffffffff160217905550336004600086815260200190815260200160002060040160006101000a81548173ffffffffffffffffffffffffffffffffffffffff021916908373ffffffffffffffffffffffffffffffffffffffff160217905550826004600086815260200190815260200160002060030181905550837f3a4f744b5d8024eb155e72b567ba75175f0cb51868e4ae71d0d30258ff41329082878633304260006040516111be9796959493929190611be0565b60405180910390a25050505050565b600260009054906101000a900473ffffffffffffffffffffffffffffffffffffffff1673ffffffffffffffffffffffffffffffffffffffff163373ffffffffffffffffffffffffffffffffffffffff161461125d576040517f08c379a000000000000000000000000000000000000000000000000000000000815260040161125490611d6f565b60405180910390fd5b8060038190555050565b60006004600083815260200190815260200160002060040160009054906101000a900473ffffffffffffffffffffffffffffffffffffffff16905060006004600084815260200190815260200160002060030154905060006004600085815260200190815260200160002060010154905034821461131a576040517f08c379a000000000000000000000000000000000000000000000000000000000815260040161131190611ddb565b60405180910390fd5b60016004600086815260200190815260200160002060070160006101000a81548160ff021916908315150217905550426004600086815260200190815260200160002060060181905550336004600086815260200190815260200160002060050160006101000a81548173ffffffffffffffffffffffffffffffffffffffff021916908373ffffffffffffffffffffffffffffffffffffffff1602179055508473ffffffffffffffffffffffffffffffffffffffff166323b872dd3033846040518463ffffffff1660e01b81526004016113f693929190611b8b565b600060405180830381600087803b15801561141057600080fd5b505af1158015611424573d6000803e3d6000fd5b505050506114326001611554565b837f353b0141dfa7beb55a963e79460fa2aa6e101e3e69556ee5ba0b699f459fa9ef8287600460008981526020019081526020016000206003015430334260016040516114859796959493929190611be0565b60405180910390a2600260009054906101000a900473ffffffffffffffffffffffffffffffffffffffff1673ffffffffffffffffffffffffffffffffffffffff166108fc6003549081150290604051600060405180830381858888f193505050501580156114f7573d6000803e3d6000fd5b508273ffffffffffffffffffffffffffffffffffffffff166108fc349081150290604051600060405180830381858888f1935050505015801561153e573d6000803e3d6000fd5b505050505050565b600081600001549050919050565b6001816000016000828254019250508190555050565b600081600001549050600081116115b6576040517f08c379a00000000000000000000000000000000000000000000000000000000081526004016115ad90611e47565b60405180910390fd5b6001810382600001819055505050565b6040518061010001604052806000815260200160008152602001600073ffffffffffffffffffffffffffffffffffffffff16815260200160008152602001600073ffffffffffffffffffffffffffffffffffffffff168152602001600073ffffffffffffffffffffffffffffffffffffffff168152602001600081526020016000151581525090565b600081519050919050565b600082825260208201905092915050565b6000819050602082019050919050565b6000819050919050565b61168e8161167b565b82525050565b600073ffffffffffffffffffffffffffffffffffffffff82169050919050565b60006116bf82611694565b9050919050565b6116cf816116b4565b82525050565b60006116e082611694565b9050919050565b6116f0816116d5565b82525050565b60008115159050919050565b61170b816116f6565b82525050565b610100820160008201516117286000850182611685565b50602082015161173b6020850182611685565b50604082015161174e60408501826116c6565b5060608201516117616060850182611685565b50608082015161177460808501826116e7565b5060a082015161178760a08501826116e7565b5060c082015161179a60c0850182611685565b5060e08201516117ad60e0850182611702565b50505050565b60006117bf8383611711565b6101008301905092915050565b6000602082019050919050565b60006117e48261164f565b6117ee818561165a565b93506117f98361166b565b8060005b8381101561182a57815161181188826117b3565b975061181c836117cc565b9250506001810190506117fd565b5085935050505092915050565b6000602082019050818103600083015261185181846117d9565b905092915050565b6118628161167b565b82525050565b600060208201905061187d6000830184611859565b92915050565b600080fd5b611891816116b4565b811461189c57600080fd5b50565b6000813590506118ae81611888565b92915050565b6118bd8161167b565b81146118c857600080fd5b50565b6000813590506118da816118b4565b92915050565b6000806000606084860312156118f9576118f8611883565b5b60006119078682870161189f565b9350506020611918868287016118cb565b9250506040611929868287016118cb565b9150509250925092565b60006020828403121561194957611948611883565b5b6000611957848285016118cb565b91505092915050565b6000806040838503121561197757611976611883565b5b60006119858582860161189f565b9250506020611996858286016118cb565b9150509250929050565b7f4e487b7100000000000000000000000000000000000000000000000000000000600052601160045260246000fd5b60006119da8261167b565b91506119e58361167b565b9250828210156119f8576119f76119a0565b5b828203905092915050565b7f4e487b7100000000000000000000000000000000000000000000000000000000600052604160045260246000fd5b6000611a3d8261167b565b9150611a488361167b565b9250827fffffffffffffffffffffffffffffffffffffffffffffffffffffffffffffffff03821115611a7d57611a7c6119a0565b5b828201905092915050565b7f4e487b7100000000000000000000000000000000000000000000000000000000600052603260045260246000fd5b6000611ac28261167b565b91507fffffffffffffffffffffffffffffffffffffffffffffffffffffffffffffffff8203611af457611af36119a0565b5b600182019050919050565b600082825260208201905092915050565b7f546865206c697374696e67207072696365206973206e6f7420636f7272656374600082015250565b6000611b46602083611aff565b9150611b5182611b10565b602082019050919050565b60006020820190508181036000830152611b7581611b39565b9050919050565b611b85816116b4565b82525050565b6000606082019050611ba06000830186611b7c565b611bad6020830185611b7c565b611bba6040830184611859565b949350505050565b611bcb816116d5565b82525050565b611bda816116f6565b82525050565b600060e082019050611bf5600083018a611859565b611c026020830189611b7c565b611c0f6040830188611859565b611c1c6060830187611bc2565b611c296080830186611bc2565b611c3660a0830185611859565b611c4360c0830184611bd1565b98975050505050505050565b7f596f7520617265206e6f74206f776e6572206f662074686973204e4654210000600082015250565b6000611c85601e83611aff565b9150611c9082611c4f565b602082019050919050565b60006020820190508181036000830152611cb481611c78565b9050919050565b600081519050611cca81611888565b92915050565b600060208284031215611ce657611ce5611883565b5b6000611cf484828501611cbb565b91505092915050565b7f4f6e6c7920746865206f776e65722063616e2063616c6c20746869732066756e60008201527f6374696f6e000000000000000000000000000000000000000000000000000000602082015250565b6000611d59602583611aff565b9150611d6482611cfd565b604082019050919050565b60006020820190508181036000830152611d8881611d4c565b9050919050565b7f54686520616d6f756e74206973206e6f7420636f727265637400000000000000600082015250565b6000611dc5601983611aff565b9150611dd082611d8f565b602082019050919050565b60006020820190508181036000830152611df481611db8565b9050919050565b7f436f756e7465723a2064656372656d656e74206f766572666c6f770000000000600082015250565b6000611e31601b83611aff565b9150611e3c82611dfb565b602082019050919050565b60006020820190508181036000830152611e6081611e24565b905091905056fea26469706673582212202228fcf423b8abd05df35ef18141231bee0ba2d1117e2fdc94fe1da701f11b2864736f6c634300080f0033",
  "immutableReferences": {},
  "source": "// SPDX-License-Identifier: MIT\r\npragma solidity 0.8.15;\r\n\r\nimport \"@openzeppelin/contracts/token/ERC721/IERC721.sol\";\r\nimport \"@openzeppelin/contracts/utils/Counters.sol\";\r\nimport \"@openzeppelin/contracts/security/ReentrancyGuard.sol\";\r\n\r\ncontract MarketPlace {\r\n    using Counters for Counters.Counter;\r\n    Counters.Counter private _itemsCount;\r\n    Counters.Counter private _soldItemsCount;\r\n\r\n    // VARIABLES\r\n\r\n    address payable owner;\r\n    uint256 private _listingPrice = 0.0025 ether;\r\n\r\n    mapping(uint256 => MarketItem) private _idToMarketItems;\r\n\r\n    struct MarketItem {\r\n        uint256 itemId;\r\n        uint256 tokenId;\r\n        address nft;\r\n        uint256 amount;\r\n        address payable seller;\r\n        address payable owner;\r\n        uint256 timestamp;\r\n        bool sold;\r\n    }\r\n\r\n    constructor() {\r\n        owner = payable(msg.sender);\r\n    }\r\n\r\n    // EVENTS\r\n\r\n    event Offered(\r\n        uint256 indexed itemId,\r\n        uint256 tokenId,\r\n        address nft,\r\n        uint256 amount,\r\n        address payable seller,\r\n        address payable owner,\r\n        uint256 timestamp,\r\n        bool sold\r\n    );\r\n\r\n    event Brought(\r\n        uint256 indexed itemId,\r\n        uint256 tokenId,\r\n        address nft,\r\n        uint256 amount,\r\n        address payable seller,\r\n        address payable owner,\r\n        uint256 timestamp,\r\n        bool sold\r\n    );\r\n\r\n    event ReSell(\r\n        uint256 indexed itemId,\r\n        uint256 tokenId,\r\n        address nft,\r\n        uint256 amount,\r\n        address payable seller,\r\n        address payable owner,\r\n        uint256 timestamp,\r\n        bool sold\r\n    );\r\n\r\n    //  MODIFIERS\r\n\r\n    modifier isOwner() {\r\n        require(msg.sender == owner, \"Only the owner can call this function\");\r\n        _;\r\n    }\r\n\r\n    modifier isListingPrice() {\r\n        require(msg.value == _listingPrice, \"The listing price is not correct\");\r\n        _;\r\n    }\r\n\r\n    modifier isNFTOwner(uint256 itemId) {\r\n        require(\r\n            msg.sender == _idToMarketItems[itemId].owner,\r\n            \"You are not owner of this NFT!\"\r\n        );\r\n        _;\r\n    }\r\n\r\n    modifier isCorrectAmount(uint256 itemId) {\r\n        uint256 amount = _idToMarketItems[itemId].amount;\r\n        require(msg.value == amount, \"The amount is not correct\");\r\n        _;\r\n    }\r\n\r\n    // FUNCTIONS\r\n\r\n    function getListingPrice() public view returns (uint256) {\r\n        return _listingPrice;\r\n    }\r\n\r\n    function updateListingPrice(uint256 _newListingPrice)\r\n        public\r\n        payable\r\n        isOwner\r\n    {\r\n        _listingPrice = _newListingPrice;\r\n    }\r\n\r\n    function createMarketItem(\r\n        address _nftAddress,\r\n        uint256 tokenId,\r\n        uint256 amount\r\n    ) public payable isListingPrice {\r\n        _itemsCount.increment();\r\n\r\n        uint256 newItemId = _itemsCount.current();\r\n\r\n        _idToMarketItems[newItemId] = MarketItem(\r\n            newItemId,\r\n            tokenId,\r\n            _nftAddress,\r\n            amount,\r\n            payable(msg.sender),\r\n            payable(address(this)),\r\n            block.timestamp,\r\n            false\r\n        );\r\n\r\n        IERC721(_nftAddress).transferFrom(msg.sender, address(this), tokenId);\r\n\r\n        emit Offered(\r\n            newItemId,\r\n            tokenId,\r\n            _nftAddress,\r\n            amount,\r\n            payable(msg.sender),\r\n            payable(address(0)),\r\n            block.timestamp,\r\n            false\r\n        );\r\n    }\r\n\r\n    function resellMarketItem(\r\n        address nftAddress,\r\n        uint256 itemId,\r\n        uint256 amount\r\n    ) public payable isListingPrice isNFTOwner(itemId) {\r\n        uint256 tokenId = _idToMarketItems[itemId].tokenId;\r\n\r\n        require(\r\n            IERC721(nftAddress).ownerOf(tokenId) == msg.sender,\r\n            \"You are not owner of this NFT!\"\r\n        );\r\n\r\n        _soldItemsCount.decrement();\r\n\r\n        IERC721(nftAddress).transferFrom(msg.sender, address(this), tokenId);\r\n\r\n        _idToMarketItems[itemId].sold = false;\r\n        _idToMarketItems[itemId].owner = payable(address(this));\r\n        _idToMarketItems[itemId].seller = payable(msg.sender);\r\n        _idToMarketItems[itemId].amount = amount;\r\n\r\n        emit ReSell(\r\n            itemId,\r\n            tokenId,\r\n            nftAddress,\r\n            amount,\r\n            payable(msg.sender),\r\n            payable(address(this)),\r\n            block.timestamp,\r\n            false\r\n        );\r\n    }\r\n\r\n    function createMarketItemSell(address nftAddress, uint256 itemId)\r\n        public\r\n        payable\r\n    {\r\n        address seller = _idToMarketItems[itemId].seller;\r\n        uint256 amount = _idToMarketItems[itemId].amount;\r\n        uint256 tokenId = _idToMarketItems[itemId].tokenId;\r\n\r\n        require(amount == msg.value, \"The amount is not correct\");\r\n\r\n        _idToMarketItems[itemId].sold = true;\r\n        _idToMarketItems[itemId].timestamp = block.timestamp;\r\n        _idToMarketItems[itemId].owner = payable(msg.sender);\r\n\r\n        IERC721(nftAddress).transferFrom(address(this), msg.sender, tokenId);\r\n\r\n        _soldItemsCount.increment();\r\n\r\n        emit Brought(\r\n            itemId,\r\n            tokenId,\r\n            nftAddress,\r\n            _idToMarketItems[itemId].amount,\r\n            payable(address(this)),\r\n            payable(msg.sender),\r\n            block.timestamp,\r\n            true\r\n        );\r\n\r\n        payable(owner).transfer(_listingPrice);\r\n\r\n        payable(seller).transfer(msg.value);\r\n    }\r\n\r\n    function fetchMarketItems() public view returns (MarketItem[] memory) {\r\n        uint256 totalCount = _itemsCount.current();\r\n\r\n        uint256 unSoldCount = _itemsCount.current() - _soldItemsCount.current();\r\n\r\n        uint256 index = 0;\r\n\r\n        MarketItem[] memory items = new MarketItem[](unSoldCount);\r\n\r\n        for (uint256 i = 0; i < totalCount; i++) {\r\n            if (\r\n                _idToMarketItems[i + 1].owner == address(this) &&\r\n                _idToMarketItems[i + 1].sold == false\r\n            ) {\r\n                uint256 currentItemIndex = i + 1;\r\n\r\n                MarketItem storage item = _idToMarketItems[currentItemIndex];\r\n\r\n                items[index] = item;\r\n\r\n                index = index + 1;\r\n            }\r\n        }\r\n\r\n        return items;\r\n    }\r\n\r\n    function fetchMyNFTs() public view returns (MarketItem[] memory) {\r\n        uint256 totalCount = _itemsCount.current();\r\n\r\n        uint256 count = 0;\r\n\r\n        for (uint256 i = 0; i < totalCount; i++) {\r\n            if (_idToMarketItems[i + 1].owner == payable(msg.sender)) {\r\n                count = count + 1;\r\n            }\r\n        }\r\n\r\n        MarketItem[] memory items = new MarketItem[](count);\r\n\r\n        uint256 index = 0;\r\n\r\n        for (uint256 i = 0; i < totalCount; i++) {\r\n            if (_idToMarketItems[i + 1].owner == payable(msg.sender)) {\r\n                uint256 currentItemIndex = i + 1;\r\n\r\n                items[index] = _idToMarketItems[currentItemIndex];\r\n\r\n                index = index + 1;\r\n            }\r\n        }\r\n\r\n        return items;\r\n    }\r\n\r\n    function fethNFTsCreatedByMe() public view returns (MarketItem[] memory) {\r\n        uint256 totalCount = _itemsCount.current();\r\n        uint256 index = 0;\r\n\r\n        uint256 myNFTsCount = 0;\r\n\r\n        for (uint256 i = 0; i < totalCount; i++) {\r\n            if (_idToMarketItems[i + 1].seller == msg.sender) {\r\n                myNFTsCount = myNFTsCount + 1;\r\n            }\r\n        }\r\n\r\n        MarketItem[] memory items = new MarketItem[](myNFTsCount);\r\n\r\n        for (uint256 i = 0; i < myNFTsCount; i++) {\r\n            if (_idToMarketItems[i + 1].seller == msg.sender) {\r\n                uint256 currentItemIndex = i + 1;\r\n\r\n                MarketItem storage item = _idToMarketItems[currentItemIndex];\r\n\r\n                items[index] = item;\r\n\r\n                index = index + 1;\r\n            }\r\n        }\r\n\r\n        return items;\r\n    }\r\n}\r\n",
  "sourcePath": "D:\\Development\\blockchain\\marketplace\\smart_contract\\contracts\\MarketPlace.sol",
  "compiler": {
    "name": "solc",
    "version": "0.8.15+commit.e14f2714.Emscripten.clang"
  },
  "schemaVersion": "3.4.8",
  "updatedAt": "2022-07-25T12:23:54.948Z",
  "networkType": "ethereum",
  "devdoc": {
    "kind": "dev",
    "methods": {},
    "version": 1
  },
  "userdoc": {
    "kind": "user",
    "methods": {},
    "version": 1
  }
}